:100000000C943E000C9448000C9448000C9448005A
:100010000C9448000C9448000C9448000C94480040
:100020000C9448000C9448000C9448000C94480030
:100030000C9448000C9448000C9448000C94480020
:100040000C9448000C9448000C9448000C94480010
:100050000C9448000C9448000C9448000C94480000
:100060000C9448000C9448000C9448000C944800F0
:100070000C9448000C9448000C94480011241FBEB6
:10008000CFEFD8E0DEBFCDBF0E9471000C9493008B
:100090000C9400004A9B0BC08FE19EE40197F1F79E
:1000A00000C0000089B182FB882780F9089580E0B4
:1000B0000895CF930E944A00C82F882321F00E9400
:1000C0004A00811103C08C2FCF9108958FE097E2F1
:1000D0000197F1F700C00000F2CF8FEF81B91AB895
:1000E00008950E946D00D0E0C0E012E00E94590027
:1000F000882391F02196C330D105C1F712B99FEF43
:1001000023ED80E3915020408040E1F700C00000E3
:1001100012B8D0E0C0E0EACF8FE097E20197F1F7A4
:0A01200000C00000E3CFF894FFCF09
:00000001FF
