:100000000C943E000C9448000C9448000C9448005A
:100010000C9448000C9448000C9448000C94480040
:100020000C9448000C9448000C9448000C94480030
:100030000C9448000C9448000C9448000C94480020
:100040000C9448000C9448000C9448000C94480010
:100050000C9448000C9448000C9448000C94480000
:100060000C9448000C9448000C9448000C944800F0
:100070000C9448000C9448000C94480011241FBEB6
:10008000CFEFD8E0DEBFCDBF0E9477000C94900088
:100090000C9400008FEF8AB9089526EA289FB001DA
:1000A000299F700D11242AE131E4261B370B88E7C4
:1000B00090E0E1E0EBB950E040E04617570748F028
:1000C0001BB850E040E04217530750F0019791F7FA
:1000D0000895F5E0FA95F1F700004E5F5F4FEDCF20
:1000E000F5E0FA95F1F700004E5F5F4FECCF8FEF30
:1000F0008AB990E080E00E944D0089E190E00E9482
:100100004D0082E390E00E944D008BE490E00E945D
:100110004D0084E690E00E944D0090E080E008955C
:04012000F894FFCF81
:00000001FF
