:100000000C943E000C9448000C9448000C9448005A
:100010000C9448000C9448000C9448000C94480040
:100020000C9448000C9448000C9448000C94480030
:100030000C9448000C9448000C9448000C94480020
:100040000C9448000C9448000C9448000C94480010
:100050000C9448000C9448000C9448000C94480000
:100060000C9448000C9448000C9448000C944800F0
:100070000C9448000C9448000C94480011241FBEB6
:10008000CFEFD8E0DEBFCDBF0E94A3000C942702C3
:100090000C940000CF93DF9300D000D0CDB7DEB733
:1000A0009C0150E040E029833A834B835C83CA0182
:1000B000B9010E94DF002AEF3EE74AEA5EE3698366
:1000C0007A838B839C8369817A818B819C810E9456
:1000D000450169837A838B839C8369817A818B81D3
:1000E0009C810E94B20169837A838B839C8369819E
:1000F0007A818B819C810E94B000CB0121E022B9E2
:1001000030E020E02817390789F412B890E080E049
:1001100048EE53E0421B530B8417950770F00F9085
:100120000F900F900F90DF91CF91089542E04A9584
:10013000F1F700C02F5F3F4FE5CF22E02A95F1F79E
:1001400000C00196E9CF8FEF81B9C8EBDBE0CE01AB
:100150000E944A002197D9F712B890E080E00895F4
:100160000E94240188F09F5798F0B92F9927B75122
:10017000B0F0E1F0660F771F881F991F1AF0BA954B
:10018000C9F714C0B13091F00E943E01B1E008956A
:100190000C943E01672F782F8827B85F39F0B93F5C
:1001A000CCF3869577956795B395D9F73EF49095FE
:1001B0008095709561957F4F8F4F9F4F0895E8947C
:1001C00009C097FB3EF490958095709561957F4F9F
:1001D0008F4F9F4F9923A9F0F92F96E9BB2793954D
:1001E000F695879577956795B795F111F8CFFAF45D
:1001F000BB0F11F460FF1BC06F5F7F4F8F4F9F4F8E
:1002000016C0882311F096E911C0772321F09EE8EB
:10021000872F762F05C0662371F096E8862F70E051
:1002200060E02AF09A95660F771F881FDAF7880F2B
:100230009695879597F9089557FD9058440F551F47
:1002400059F05F3F71F04795880F97FB991F61F058
:100250009F3F79F087950895121613061406551FCF
:10026000F2CF4695F1DF08C0161617061806991F3B
:10027000F1CF86957105610508940895E894BB2730
:1002800066277727CB0197F908950E9458010C94AF
:1002900016020E94080238F00E940F0220F09523F7
:1002A00011F00C94D6010C94050211240C943F011A
:1002B0000E941C0170F3959FC1F3950F50E0551FEC
:1002C000629FF001729FBB27F00DB11D639FAA27AB
:1002D000F00DB11DAA1F649F6627B00DA11D661FFA
:1002E000829F2227B00DA11D621F739FB00DA11D1B
:1002F000621F839FA00D611D221F749F3327A00DD5
:10030000611D231F849F600D211D822F762F6A2F70
:1003100011249F5750409AF0F1F088234AF0EE0FD5
:10032000FF1FBB1F661F771F881F91505040A9F702
:100330009E3F510580F00C94D6010C943F015F3F25
:10034000E4F3983ED4F3869577956795B795F7953E
:10035000E7959F5FC1F7FE2B880F911D96958795B6
:1003600097F908950E942401E8F09E37E8F0963945
:10037000B8F49E3848F4672F782F8827985FF9CF14
:1003800086957795679593959539D0F3B62FB1708B
:100390006B0F711D811D20F4879577956795939557
:1003A0000C94DC010C94F7010C943F0197F99F67C2
:1003B00080E870E060E00895882371F4772321F0ED
:1003C0009850872B762F07C0662311F499270DC00C
:1003D0009051862B70E060E02AF09A95660F771FA7
:1003E000881FDAF7880F9695879597F908959F3FAC
:1003F00031F0915020F4879577956795B795880FE0
:10040000911D9695879597F908959FEF80EC089533
:1004100000240A94161617061806090608950024E3
:100420000A9412161306140605060895092E03945D
:10043000000C11F4882352F0BB0F40F4BF2B11F4D1
:1004400060FF04C06F5F7F4F8F4F9F4F0895F894F8
:02045000FFCFDC
:00000001FF
