:100000000C943E000C9448000C9448000C9448005A
:100010000C9448000C9448000C9448000C94480040
:100020000C9448000C9448000C9448000C94480030
:100030000C9448000C9448000C9448000C94480020
:100040000C9448000C9448000C9448000C94480010
:100050000C9448000C9448000C9448000C94480000
:100060000C9448000C9448000C9448000C944800F0
:100070000C9448000C9448000C94480011241FBEB6
:10008000CFEFD8E0DEBFCDBF0E944A000C947500D0
:100090000C9400008FEF81B921E032E022B94FEFDC
:1000A00084E39CE0415080409040E1F700C00000B4
:1000B00032B9EFEFF4E34CE0E150F0404040E1F7BB
:1000C00000C0000086E490E022B9EFE0F7E231974B
:1000D000F1F700C0000032B9EFE0F7E23197F1F735
:0E00E00000C00000019781F7D9CFF894FFCF40
:00000001FF
