:100000000C943E000C9448000C9448000C9448005A
:100010000C9448000C9448000C9448000C94480040
:100020000C9448000C9448000C9448000C94480030
:100030000C9448000C9448000C9448000C94480020
:100040000C9448000C9448000C9448000C94480010
:100050000C9448000C9448000C9448000C94480000
:100060000C9448000C9448000C9448000C944800F0
:100070000C9448000C9448000C94480011241FBEB6
:10008000CFEFD8E0DEBFCDBF0E9459000C949300A3
:100090000C9400004A9B0BC08FE19EE40197F1F79E
:1000A00000C0000089B182FB882780F9089580E0B4
:1000B00008958FEF81B91AB8C2E0D0E011E002E0F4
:1000C0000E944A00882369F1C230D10551F40E9490
:1000D0004A00811104C0C82F90E0D92FF1CF12B986
:1000E000F6CFCD2B49F00E944A0081110BC092E05F
:1000F000C92FD82FE5CF02B90E944A008111FBCF4A
:1001000081E0E9CF12B98FE097E20197F1F700C0E3
:10011000000002B98FE097E20197F1F700C00000FC
:0A012000E2CF12B8CDCFF894FFCF64
:00000001FF
