:100000000C943E000C9448000C9448000C9448005A
:100010000C9448000C9448000C9448000C94480040
:100020000C9448000C9448000C9448000C94480030
:100030000C9448000C9448000C9448000C94480020
:100040000C9448000C9448000C9448000C94480010
:100050000C9448000C9448000C9448000C94480000
:100060000C9448000C9448000C9448000C944800F0
:100070000C9448000C9448000C94480011241FBEB6
:10008000CFEFD8E0DEBFCDBF0E945D000C948D00A5
:100090000C9400004A9B0BC08FE19EE40197F1F79E
:1000A00000C0000089B182FB882780F9089580E0B4
:1000B00008958FEF81B91AB808950E945900C1E0E0
:1000C000D2E0C2B90E944A008823D9F3C2B98FE0B6
:1000D00097E20197F1F700C00000D2B98FEC97E0EA
:1000E0000197F1F700C000000E944A008111EECF95
:1000F000D2B90E944A008823D9F3C2B90E944A00AB
:100100008111FBCF12B80E944A008823D9F3D2B9DB
:0E0110000E944A008111FBCFD4CFF894FFCF9C
:00000001FF
